:100CD200636170747572655F6170706C6963617471
:100CE200696F6E203A002C667265713A002C647549
:100CF20074793A002C483A002C4C3A002C776964FB
:100D02007468546F74616C3A002C74656D703A00AB
:030D12000D0A00C7
:100EAC0041002D0041002E00C10144002F00000024
:100EBC00004200270000420029000042002B0000E5
:0B0D1500900024EBF0A3EAF0A3E9F04B
:100D2000E4FFFE900024E0FBA3E0FAA3E0F98F8249
:100D30008E8312028B601B900024E0A3E0A3E00FDF
:100D4000EFAC0670010E14F5828C8312028BF599BC
:020D500080D150
:010D5200227E
:04095D00AB07AA0634
:10096100900020E4F0A3740FF0900020E0FEA3E0DB
:100971002410F58274003EF583E4F0EBAE02781F9B
:10098100CEC313CE13D8F9FF900022EEF0A3EFF0FF
:100991004E600DEBF4FFEAF4FEEF2401FBE43EFAB6
:1009A100900021E024FFF0900020E034FFF07C0073
:1009B1007D0AAF03AE021202B8ED2430FFE0FCA3C2
:1009C100E02410F58274003CF583EFF07C007D0A91
:1009D100AF03AE021202B8AA06AB07EB4A70C19090
:1009E1000022E07002A3E0601E900021E024FFF0ED
:1009F100900020E034FFF0E0FEA3E02410F58274C3
:100A0100003EF583742DF0900020E0FEA3E0241059
:0A0A1100F974003EFA7B01120D1586
:010A1B0022B8
:1004AF0090000412047E00000000E4900008F0A306
:1004BF00F0A3F0A3F0A3F0A3F0A3F0A3F0E5923024
:1004CF00E022AFE590000AE4F0A3EFF0E07F00FE3A
:1004DF0090000AF0A3EFF0ADE4EEEDFF90000AEE0E
:1004EF00F0A3EFF0E59230E122AFE790000CE4F0DB
:1004FF00A3EFF0E07F00FE90000CF0A3EFF0ADE66D
:10050F00EEEDFF90000CEEF0A3EFF05392FE53923E
:10051F00FDC2CF90000CE0FEA3E0FF90000BE02F98
:10052F00FF90000AE03EFE90000EF0A3EFF0FBAA52
:10053F0006E4F9F8FF7E367D6E7C011203AE900063
:10054F0008EEF0A3EFF090000CE0FCA3E0FDE41246
:10055F0001D1C004C005C006C00790000EE0FCA387
:10056F00E0FDE41201D1A804A905AA06AB07D00744
:10057F00D006D005D00412012F7B007A40791C7869
:10058F004612002612020A9000041204729000080C
:10059F00E0FEA3E0FFFBAA06E4F9F8FF7E367D6ECE
:1005AF007C011203AEC006C00790000EE0FEA3E070
:1005BF00FFFBAA06E4D007D006C3EF9BFFEE9AFE1F
:1005CF00ED9400FDEC9400FCE4FBFAF9F8C312047F
:1005DF004E503C900008E0FEA3E0FFFBAA06E4F8B3
:1005EF00FF7E367D6E7C011203AEC006C007900001
:1005FF000EE0FEA3E0FFFBAA06E4D007D006C3EF90
:10060F009BFFEE9AFEED9400FDEC9400FC803E9073
:10061F000008E0FEA3E0FFFBAA06E4F9F8FF7E3630
:10062F007D6E7C011203AEC006C00790000EE0FE87
:10063F00A3E0FFFBAA06E4D007D006C3EF9BFFEEB3
:10064F009AFEED9400FDEC9400FC120440E47B054F
:10065F00FAF9F8D312044E500302072390000AE070
:10066F007002A3E0700302072390000CE07002A356
:10067F00E070030207237BFF7A0C79D2120D157BF2
:10068F00FF7A0C79E8120D15900008E0FEA3E0FF49
:10069F0012095D7BFF7A0C79EF120D15900004E0C3
:1006AF00A3E0A3E0FEA3E0FF12095D7BFF7A0C79C4
:1006BF00F6120D1590000AE0FEA3E0FF12095D7B14
:1006CF00FF7A0C79FA120D1590000CE0FEA3E0FFF3
:1006DF0012095D7BFF7A0C79FE120D1590000EE06A
:1006EF00FEA3E0FF12095D7BFF7A0D790B120D154A
:1006FF00900008E0FEA3E0FFFBAA06E4F9F8FF7EF6
:10070F00367D6E7C011203AE12095D7BFF7A0D7987
:04071F0012120D1590
:0107230022B3
:100C8D00A2AF9200C2AF75C7AA75C755E4F591A280
:100C9D000092AF53B3FB53B4FBD29253C8FE75C948
:100CAD008953C8FE75C98A5393FC43930153F1F0E0
:100CBD004392104394105393F353F10F43922043F7
:050CCD009420D2CA22B0
:0E072400900004EEF0A3EFF0A3ECF0A3EDF0D4
:10073200A312047E00000000A2AF9200C2AF75C7F0
:10074200AA75C755E4F591A20092AF53B3DF43B443
:1007520020A2AF9200C2AF75C7AA75C755759101A5
:10076200A20092AF43C620A2AF9200C2AF75C7AA41
:1007720075C755F591A20092AF53DF3F53DFF8439F
:10078200DF0190000812047E00B71B00900008E011
:10079200FCA3E0FDA3E0FEA3E0FFC006C0079000BB
:1007A20004E0FEA3E0FFFBAA06E4F9F8D007D006B6
:1007B2001203AE900008120472900008E0FCA3E05D
:1007C200FDA3E0FEA3E024FFFFEE34FFFEED34FFC5
:1007D200FDEC34FFFC900008120472900008E0FC6B
:1007E200A3E0FDA3E0FEA3E0FF780812045F8FD12F
:1007F200900008E0FCA3E0FDA3E0FEA3E0FFE48F8D
:10080200D9900008E0FCA3E0FDA3E0FEA3E02401F0
:10081200FBE43EFAE43DF9E43CF8900006E0FEA376
:10082200E0FFE4FCFD120323E47B107A27F9F812BF
:1008320003AE900008120472A2AF9200C2AF75C755
:10084200AA75C755759101A20092AF900008E0FC0D
:10085200A3E0FDA3E0FEA3E0FF780812045F8FC5CA
:10086200900008E0FCA3E0FDA3E0FEA3E0FFE48F1C
:10087200CDA2AF9200C2AF75C7AA75C755F591A2B6
:070882000092AFD2DED2DFCD
:01088900224C
:100E0100A2AF9200C2AF75C7AA75C755E4F591A20A
:100E11000092AF53B37F53B47FA2AF9200C2AF75BC
:100E2100C7AA75C755F591A20092AF53ACFE43AD69
:020E310001229C
:100BFC0090002FE0FCA3E0FDA3E0FEA3E05410FF67
:100C0C00E4FEFDFCEF60047F0180027F00EF6029B1
:100C1C0090002FE0FCA3E0FDA3E0FEA3E054EFFF67
:100C2C00EEEDEC90002F120472B2B07D567C1D7F5D
:0A0C3C00807E3E1207241204AF224E
:100D530090002FE0FCA3E0FDA3E0FEA3E05408FF16
:100D6300E4FEFDFCEF60047F0180027F00EF601969
:100D730090002FE0FCA3E0FDA3E0FEA3E054F7FF07
:0A0D8300EEEDEC90002F1204722236
:100D8D0090002FE0FCA3E0FDA3E0FEA3E05404FFE0
:100D9D00E4FEFDFCEF60047F0180027F00EF60192F
:100DAD0090002FE0FCA3E0FDA3E0FEA3E054FBFFC9
:0A0DBD00EEEDEC90002F12047222FC
:100DC70090002FE0FCA3E0FDA3E0FEA3E05402FFA8
:100DD700E4FEFDFCEF60047F0180027F00EF6019F5
:100DE70090002FE0FCA3E0FDA3E0FEA3E054FDFF8D
:0A0DF700EEEDEC90002F12047222C2
:0D0ECD00120DC7120D8D120D53120BFC22D9
:10088A00900000E4F0A37405F0A3E4F0A37419F057
:10089A007B327A0090002FE0FCA3E0FDA3E0FEA3E8
:1008AA00E04402FFEEEDEC90002F12047290002754
:1008BA00E475F00112030DFED3900001E095F0906B
:1008CA000000E09E502090002FE0FCA3E0FDA3E092
:1008DA00FEA3E04404FFEEEDEC90002F120472E454
:1008EA00900027F0A3F0900029E475F00112030D9F
:1008FA00FED3900003E095F0900002E09E50209015
:10090A00002FE0FCA3E0FDA3E0FEA3E04408FFEE15
:10091A00EDEC90002F120472E4900029F0A3F090FD
:10092A00002BE475F00112030DFCC3E5F09BEC9A71
:10093A00402090002FE0FCA3E0FDA3E0FEA3E044EA
:10094A0010FFEEEDEC90002F120472E490002BF0F1
:02095A00A3F008
:01095C002278
:03000B00020C469E
:100C4600C0E0C0F0C083C082C0D075D000C000C074
:100C560002C003C004C005C006C007C09190002DA5
:100C6600E0F58CA3E0F58AC28D12088AD091D007F0
:100C7600D006D005D004D003D002D000D0D0D08288
:070C8600D083D0F0D0E03272
:100E3300E4900004F0A3F07D707CFE5389F04389B5
:100E430001538EF7EC90002DF07470A3F090002DF9
:0D0E5300E0F58CA3E0F58AD2A9D2AFD28CD5
:010E6000226F
:03002300020E6169
:100E6100C0E0C083C082C09130980AD201900033A3
:100E7100E599F0C298309905200202C299D091D02B
:060E810082D083D0E032B4
:100A1C0090000412047E0001C200A2AF9200C2AF8B
:100A2C0075C7AA75C755E4F591A20092AF53B1BF33
:100A3C0053B2BF75985043878053C4F8A2AF92004D
:100A4C00C2AF75C7AA75C755F591A20092AF43C442
:100A5C0020900004E0F8A3E0F9A3E0FAA3E0FB7F08
:100A6C00607EE37D167C001203AEC3E49FFFE49E20
:100A7C00FE74019DFDE49CFC780812045F8FC69007
:100A8C000004E0F8A3E0F9A3E0FAA3E0FB7F607EAA
:100A9C00E37D167C001203AEC3E49FFFE49EFE745C
:100AAC00019DFDE49CFCEFE48FC5A2AF9200C2AFA8
:100ABC0075C7AA75C755F591A20092AF43C408D269
:070ACC00ACD2AFD299D202B7
:010AD3002200
:100B6E009000047406F0E4F59175A638A2AF9200D9
:100B7E00C2AF75C7AA75C755439F01A20092AFF5C4
:100B8E00A775AF04A2AF9200C2AF75C7AA75C755BD
:100B9E0043A401A20092AF85AE0805A6A2AF9200B3
:100BAE00C2AF75C7AA75C75543A401A20092AF85FF
:100BBE00AE09A2AF9200C2AF75C7AA75C755539FB3
:100BCE00FEA20092AF75C7AA75C75585088475C772
:100BDE00AA75C755850985A2AF9200C2AF75C7AA7F
:0D0BEE0075C755539FFEA20092AF5387EFCD
:010BFB0022D7
:100E8700120B6EA2AF9200C2AF75C7AA75C755E421
:100E9700F591A20092AFF5B1F5B2F5B3F5B4F5ACA3
:050EA700F5ADD2AF2201
:10000E00120E87120A1C120E01120E33120C8D12D2
:05001E000ECD80FB2265
:03000000020AD41D
:100AD400787FE4F6D8FD9000007FFF7E03E4F0A366
:0A0AE400DFFCDEFA758120020B2909
:10002600EC4D6011E8497017ED33EC3304600DE4D4
:10003600FCFFFEFD22E933E8330470F80202761273
:10004600024158046009E4CC248150062850090274
:10005600028028400302027DC0E0EB4A7044B9806A
:1000660006D0E0FB02026CEF4E701CBD8008EBFF71
:10007600EAFEE9FD80EBE98DF0A4FEE5F002010F52
:10008600E9CDF9EAFEEBFFEF89F0A4FCE5F0CE89B5
:10009600F0A42EFFE435F0CD89F0A42DFEE435F072
:1000A6008067EF4E7005BD80D780C3EF8BF0A4ACA0
:1000B600F0EE8BF0A42CFCE435F0F8EF8AF0A42CDB
:1000C600E5F038FCE433CB8DF0A42CFCE5F03BF8EE
:1000D600EE8AF0A42CFCE5F038F8E433CF89F0A4DE
:1000E6002CFCE5F038CF3400CE89F0A42FFFE5F0E4
:1000F6003EFEE433C98DF0A42EFEE5F039CD8AF03C
:10010600A42FFFE5F03EFEE43DFD33D0E0FB5007B3
:100116000BBB000F020280EC2CFCEF33FFEE33FE2C
:06012600ED33FD0202585A
:10012C00020280EC5D046005E8590470030202765B
:10013C00120241580460F6EC4860F2EC7004FDFECB
:10014C00FF22C860DB2481C85009C39860025006A6
:10015C0002027D9850CAF582E9294B4A7005AB82A0
:10016C0002026C75F0007C1A7880C3EF9BEE9AED5E
:10017C0099400DC3EF9BFFEE9AFEED99FDE842F01E
:10018C00DC23ACF0D0E0FFD0E0FED0E0FDAB822071
:10019C00E7101BEB60BAEC2CFCEF33FFEE33FEEDFB
:1001AC0033FD020258E803F830E705C0F075F000A3
:1001BC00EF2FFFEE33FEED33FD40B830E7C280AADF
:1001CC0075F020800E75F010800575F0087D007EAE
:1001DC00007F003392D530D503120440EC3340102D
:1001EC00EF33FFEE33FEED33FDEC33FCD5F0ED22B7
:0E01FC00E5F0247EA2D513CC92E7CDCEFF22F3
:10020A00EDD2E7CD33EC3392D524814006E4FFFEEC
:10021A00FDFC22FCE4CFCECDCC24E0501174FF804B
:10022A00EDC3CC13CCCD13CDCE13CECF13CF0470E8
:07023A00F030D5DE020440A4
:10024100E9D2E7C933E833F892D5EDD2E7CD33EC03
:0702510033FC5002B2D5227C
:10025800EC30E7100FBF000C0EBE00080DBD000407
:100268000BEB6014A2D5EB13FCED92E7FD2274FFB3
:10027800FCFDFEFF22E480F8A2D574FF13FC7D800C
:03028800E480EF20
:100AEE0002000EE493A3F8E493A34003F68001F210
:100AFE0008DFF48029E493A3F85407240CC8C33309
:100B0E00C4540F4420C8834004F456800146F6DFD7
:100B1E00E4800B0102040810204080900EACE47EAD
:100B2E00019360BCA3FF543F30E509541FFEE493CC
:100B3E00A360010ECF54C025E060A840B8E493A393
:100B4E00FAE493A3F8E493A3C8C582C8CAC583CABE
:100B5E00F0A3C8C582C8CAC583CADFE9DEE780BE76
:010ECC000025
:10028B00BB010CE58229F582E5833AF583E0225028
:10029B0006E92582F8E622BBFE06E92582F8E22272
:0D02AB00E58229F582E5833AF583E493228C
:1002B800BC000BBE0029EF8DF084FFADF022E4CC2A
:1002C800F875F008EF2FFFEE33FEEC33FCEE9DECF3
:1002D800984005FCEE9DFE0FD5F0E9E4CEFD22ED39
:1002E800F8F5F0EE8420D21CFEADF075F008EF2F83
:1002F800FFED33FD4007985006D5F0F222C398FD74
:050308000FD5F0EA2210
:10030D00C5F0F8A3E028F0C5F0F8E582158270027B
:06031D001583E038F02218
:10032300E88FF0A4CC8BF0A42CFCE98EF0A42CFC79
:100333008AF0EDA42CFCEA8EF0A4CDA8F08BF0A4F7
:100343002DCC3825F0FDE98FF0A42CCD35F0FCEB56
:100353008EF0A4FEA9F0EB8FF0A4CFC5F02ECD391B
:0F036300FEE43CFCEAA42DCE35F0FDE43CFC2288
:1003720075F008758200EF2FFFEE33FECD33CDCC42
:1003820033CCC58233C5829BED9AEC99E5829840C5
:100392000CF582EE9BFEED9AFDEC99FC0FD5F0D6A2
:1003A200E4CEFBE4CDFAE4CCF9A88222B800C1B9CC
:1003B2000059BA002DEC8BF084CFCECDFCE5F0CB0A
:1003C200F97818EF2FFFEE33FEED33FDEC33FCEB43
:1003D20033FB10D703994004EB99FB0FD8E5E4F9FE
:1003E200FA227818EF2FFFEE33FEED33FDEC33FCEB
:1003F200C933C910D7059BE99A4007EC9BFCE99ADF
:10040200F90FD8E0E4C9FAE4CCFB2275F010EF2F23
:10041200FFEE33FEED33FDCC33CCC833C810D70723
:100422009BEC9AE899400AED9BFDEC9AFCE899F85E
:0E0432000FD5F0DAE4CDFBE4CCFAE4C8F922F1
:0E044000C3E49FFFE49EFEE49DFDE49CFC22CD
:10044E00EB9FF5F0EA9E42F0E99D42F0E89C45F004
:01045E00227B
:10045F00E8600FECC313FCED13FDEE13FEEF13FF7B
:03046F00D8F1229F
:0C047200ECF0A3EDF0A3EEF0A3EFF022FD
:10047E00A8828583F0D083D082120495120495123F
:10048E000495120495E473E493A3C583C5F0C58364
:10049E00C8C582C8F0A3C583C5F0C583C8C582C8C8
:0104AE00222B
:00000001FF
