:100BC200636170747572655F6170706C6963617482
:100BD200696F6E203A002C667265713A002C64755A
:100BE20074793A002C483A002C4C3A002C7769640C
:100BF2007468546F74616C3A002C74656D703A00BD
:030C02000D0A00D8
:100D23004100270041002800420030000042003209
:100D3300000042002D0000C1014400290000000012
:0F0D430042002100004200230000420025000072
:0B0C050090001EEBF0A3EAF0A3E9F062
:100C1000E4FFFE90001EE0FBA3E0FAA3E0F98F8260
:100C20008E83120293601B90001EE0A3E0A3E00FEE
:100C3000EFAC0670010E14F5828C83120293F599C5
:020C400080D161
:010C4200228F
:04084400AB07AA064E
:1008480090001AE4F0A3740FF090001AE0FEA3E001
:10085800240AF58274003EF583E4F0EBAE02781FBB
:10086800CEC313CE13D8F9FF90001CEEF0A3EFF01F
:100878004E600DEBF4FFEAF4FEEF2401FBE43EFAD0
:1008880090001BE024FFF090001AE034FFF07C0099
:100898007D0AAF03AE021202C0ED2430FFE0FCA3D4
:1008A800E0240AF58274003CF583EFF07C007D0AB1
:1008B800AF03AE021202C0AA06AB07EB4A70C190A2
:1008C800001CE07002A3E0601E90001BE024FFF013
:1008D80090001AE034FFF0E0FEA3E0240AF58274E9
:1008E800003EF583742DF090001AE0FEA3E0240A80
:0A08F800F974003EFA7B01120C05B2
:0109020022D2
:10060C0090000412047500000000E4900008F0A3B0
:10061C00F0E59230E00FAFE5EFFFADE4ED90003088
:10062C00CFF0A3EFF0E59230E10FAFE7EFFFADE6CF
:10063C00ED900032CFF0A3EFF05392FE5392FD9069
:10064C000032E0FEA3E0FF900031E02FFF9000307D
:10065C00E03EFE90002DF0A3EFF0FDAC06E412019D
:10066C00D9A804A905AA06AB077F007E1B7DB77C21
:10067C0048120137120212900008EEF0A3EFF0902E
:10068C000032E0FCA3E0FDE41201D9C004C005C0B7
:10069C0006C00790002DE0FCA3E0FDE41201D9A8F0
:1006AC0004A905AA06AB07D007D006D005D00412C2
:1006BC0001377B007A40791C784612002E12021208
:1006CC009000041204697BFF7A0B79C2120C057B33
:1006DC00FF7A0B79D8120C05900008E0FEA3E0FF1E
:1006EC001208447BFF7A0B79DF120C05900004E0B2
:1006FC00A3E0A3E0FEA3E0FF1208447BFF7A0B7992
:10070C00E6120C05900030E0FEA3E0FF1208447BDB
:10071C00FF7A0B79EA120C05900032E0FEA3E0FFA1
:10072C001208447BFF7A0B79EE120C0590002DE039
:10073C00FEA3E0FF1208447BFF7A0B79FB120C0539
:10074C00900008E0FEA3E0FFFBAA06E4F9F87FD8CE
:10075C007EB87D05FC1203B61208447BFF7A0C7937
:04076C0002120C0564
:010770002266
:03002B00020003CD
:07000300C091C2CFD0913281
:100AE300A2AF9200C2AF75C7AA75C755E4F591A22C
:100AF3000092AF53B3FB53B4FBD29253C8FE75C9F4
:100B03008953C8FE75C98A43C94053C9CF5393FC5F
:100B130043930153F1F04392104394105393F353CF
:0E0B2300F10F439220439420D2CA439B8022BC
:0E04A600900004EEF0A3EFF0A3ECF0A3EDF055
:1004B400A312047500000000A2AF9200C2AF75C77A
:1004C400AA75C755E4F591A20092AF53B3DF43B4C4
:1004D40020A2AF9200C2AF75C7AA75C75575910126
:1004E400A20092AF43C620A2AF9200C2AF75C7AAC2
:1004F40075C755F591A20092AF53DF3F53DFF84320
:10050400DF069000081204750005B8D8900008E0D2
:10051400FCA3E0FDA3E0FEA3E0FFC006C00790003B
:1005240004E0FEA3E0FFFBAA06E4F9F8D007D00636
:100534001203B6900008120469900008E0FCA3E0DE
:10054400FDA3E0FEA3E024FFFFEE34FFFEED34FF45
:10055400FDEC34FFFC900008120469900008E0FCF4
:10056400A3E0FDA3E0FEA3E0FF78081204568FD1B8
:10057400900008E0FCA3E0FDA3E0FEA3E0FFE48F0D
:10058400D9900008E0FCA3E0FDA3E0FEA3E0240171
:10059400FBE43EFAE43DF9E43CF8900006E0FEA3F7
:1005A400E0FFE4FCFD12032BE47B107A27F9F81238
:1005B40003B6900008120469A2AF9200C2AF75C7D7
:1005C400AA75C755759101A20092AF900008E0FC8E
:1005D400A3E0FDA3E0FEA3E0FF78081204568FC554
:1005E400900008E0FCA3E0FDA3E0FEA3E0FFE48F9D
:1005F400CDA2AF9200C2AF75C7AA75C755F591A237
:070604000092AFD2DED2DF4D
:01060B0022CC
:100CF100A2AF9200C2AF75C7AA75C755E4F591A21C
:100D01000092AF53B37F53B47FA2AF9200C2AF75CD
:100D1100C7AA75C755F591A20092AF53ACFE43AD7A
:020D21000122AD
:100B3100900029E0FCA3E0FDA3E0FEA3E05410FF38
:100B4100E4FEFDFCEF60047F0180027F00EF60297D
:100B5100900029E0FCA3E0FDA3E0FEA3E054EFFF39
:100B6100EEEDEC900029120469B2B07D567C1D7F38
:0A0B7100E87E031204A612060C220F
:100C4300900029E0FCA3E0FDA3E0FEA3E05408FF2D
:100C5300E4FEFDFCEF60047F0180027F00EF60197A
:100C6300900029E0FCA3E0FDA3E0FEA3E054F7FF1E
:0A0C7300EEEDEC9000291204692256
:100C7D00900029E0FCA3E0FDA3E0FEA3E05404FFF7
:100C8D00E4FEFDFCEF60047F0180027F00EF601940
:100C9D00900029E0FCA3E0FDA3E0FEA3E054FBFFE0
:0A0CAD00EEEDEC900029120469221C
:100CB700900029E0FCA3E0FDA3E0FEA3E05402FFBF
:100CC700E4FEFDFCEF60047F0180027F00EF601906
:100CD700900029E0FCA3E0FDA3E0FEA3E054FDFFA4
:0A0CE700EEEDEC90002912046922E2
:0D0DCC00120CB7120C7D120C43120B3122D9
:10077100900000E4F0A37405F0A3E4F0A37419F071
:100781007B327A00900029E0FCA3E0FDA3E0FEA308
:10079100E04402FFEEEDEC90002912046990002183
:1007A100E475F001120315FED3900001E095F0907D
:1007B1000000E09E5020900029E0FCA3E0FDA3E0B2
:1007C100FEA3E04404FFEEEDEC900029120469E47D
:1007D100900021F0A3F0900023E475F001120315BD
:1007E100FED3900003E095F0900002E09E5020902F
:1007F1000029E0FCA3E0FDA3E0FEA3E04408FFEE36
:10080100EDEC900029120469E4900023F0A3F0902C
:100811000025E475F001120315FCC3E5F09BEC9A89
:100821004020900029E0FCA3E0FDA3E0FEA3E0440A
:1008310010FFEEEDEC900029120469E4900025F020
:02084100A3F022
:010843002292
:03000B00020B7B6A
:100B7B00C0E0C0F0C083C082C0D075D000C000C040
:100B8B0002C003C004C005C006C007C09190002777
:100B9B00E0F58CA3E0F58AC28D120771D091D007D6
:100BAB00D006D005D004D003D002D000D0D0D08254
:070BBB00D083D0F0D0E0323E
:100D5300E4900004F0A3F07D707CFE5389F0438996
:100D630001538EF7EC900027F07470A3F0900027E6
:0D0D7300E0F58CA3E0F58AD2A9D2AFD28CB6
:010D80002250
:03002300020D814A
:100D8100C0E0C083C082C09130980AD20190002F88
:100D9100E599F0C298309905200202C299D091D00C
:060DA10082D083D0E03295
:100903009000041204750001C200A2AF9200C2AFAE
:1009130075C7AA75C755E4F591A20092AF53B1BF4D
:1009230053B2BF75985043878053C4F8A2AF920067
:10093300C2AF75C7AA75C755F591A20092AF43C45C
:1009430020900004E0F8A3E0F9A3E0FAA3E0FB7F22
:10095300607EE37D167C001203B6C3E49FFFE49E32
:10096300FE74019DFDE49CFC78081204568FC6902A
:100973000004E0F8A3E0F9A3E0FAA3E0FB7F607EC4
:10098300E37D167C001203B6C3E49FFFE49EFE746E
:10099300019DFDE49CFCEFE48FC5A2AF9200C2AFC2
:1009A30075C7AA75C755F591A20092AF43C408D283
:0709B300ACD2AFD299D202D1
:0109BA00221A
:100A55009000047406F0E4F59175A638A2AF9200F3
:100A6500C2AF75C7AA75C755439F01A20092AFF5DE
:100A7500A775AF04A2AF9200C2AF75C7AA75C755D7
:100A850043A401A20092AF85AE0805A6A2AF9200CD
:100A9500C2AF75C7AA75C75543A401A20092AF8519
:100AA500AE09A2AF9200C2AF75C7AA75C755539FCD
:100AB500FEA20092AF75C7AA75C75585088475C78C
:100AC500AA75C755850985A2AF9200C2AF75C7AA99
:0D0AD50075C755539FFEA20092AF5387EFE7
:010AE20022F1
:100DA700120A55A2AF9200C2AF75C7AA75C755E41C
:100DB700F591A20092AFF5B1F5B2F5B3F5B4F5AC84
:050DC700F5ADD2AF22E2
:10000E00120DA7120903120CF1120D53120AE3126C
:05001E000DCC80FB2267
:030000000209BB37
:1009BB00787FE4F6D8FD9000007FFF7E03E4F0A380
:0A09CB00DFFCDEFA758120020A103D
:10002E00EC4D6011E8497017ED33EC3304600DE4CC
:10003E00FCFFFEFD22E933E8330470F802027E1263
:10004E00024958046009E4CC248150062850090264
:10005E000288284003020285C0E0EB4A7044B98052
:10006E0006D0E0FB020274EF4E701CBD8008EBFF61
:10007E00EAFEE9FD80EBE98DF0A4FEE5F002011742
:10008E00E9CDF9EAFEEBFFEF89F0A4FCE5F0CE89AD
:10009E00F0A42EFFE435F0CD89F0A42DFEE435F06A
:1000AE008067EF4E7005BD80D780C3EF8BF0A4AC98
:1000BE00F0EE8BF0A42CFCE435F0F8EF8AF0A42CD3
:1000CE00E5F038FCE433CB8DF0A42CFCE5F03BF8E6
:1000DE00EE8AF0A42CFCE5F038F8E433CF89F0A4D6
:1000EE002CFCE5F038CF3400CE89F0A42FFFE5F0DC
:1000FE003EFEE433C98DF0A42EFEE5F039CD8AF034
:10010E00A42FFFE5F03EFEE43DFD33D0E0FB5007AB
:10011E000BBB000F020288EC2CFCEF33FFEE33FE1C
:06012E00ED33FD0202604A
:10013400020288EC5D046005E85904700302027E43
:10014400120249580460F6EC4860F2EC7004FDFEBB
:10015400FF22C860DB2481C85009C398600250069E
:100164000202859850CAF582E9294B4A7005AB8290
:1001740002027475F0007C1A7880C3EF9BEE9AED4E
:1001840099400DC3EF9BFFEE9AFEED99FDE842F016
:10019400DC23ACF0D0E0FFD0E0FED0E0FDAB822069
:1001A400E7101BEB60BAEC2CFCEF33FFEE33FEEDF3
:1001B40033FD020260E803F830E705C0F075F00093
:1001C400EF2FFFEE33FEED33FD40B830E7C280AAD7
:1001D40075F020800E75F010800575F0087D007EA6
:1001E400007F003392D530D503120448EC3340101D
:1001F400EF33FFEE33FEED33FDEC33FCD5F0ED22AF
:0E020400E5F0247EA2D513CC92E7CDCEFF22EA
:10021200EDD2E7CD33EC3392D524814006E4FFFEE4
:10022200FDFC22FCE4CFCECDCC24E0501174FF8043
:10023200EDC3CC13CCCD13CDCE13CECF13CF0470E0
:07024200F030D5DE02044894
:10024900E9D2E7C933E833F892D5EDD2E7CD33ECFB
:0702590033FC5002B2D52274
:10026000EC30E7100FBF000C0EBE00080DBD0004FF
:100270000BEB6014A2D5EB13FCED92E7FD2274FFAB
:10028000FCFDFEFF22E480F8A2D574FF13FC7D8004
:03029000E480EF18
:1009D50002000EE493A3F8E493A34003F68001F22A
:1009E50008DFF48029E493A3F85407240CC8C33323
:1009F500C4540F4420C8834004F456800146F6DFF2
:100A0500E4800B0102040810204080900D23E47E51
:100A1500019360BCA3FF543F30E509541FFEE493E6
:100A2500A360010ECF54C025E060A840B8E493A3AD
:100A3500FAE493A3F8E493A3C8C582C8CAC583CAD8
:100A4500F0A3C8C582C8CAC583CADFE9DEE780BE90
:010D520000A0
:10029300BB010CE58229F582E5833AF583E0225020
:1002A30006E92582F8E622BBFE06E92582F8E2226A
:0D02B300E58229F582E5833AF583E4932284
:1002C000BC000BBE0029EF8DF084FFADF022E4CC22
:1002D000F875F008EF2FFFEE33FEEC33FCEE9DECEB
:1002E000984005FCEE9DFE0FD5F0E9E4CEFD22ED31
:1002F000F8F5F0EE8420D21CFEADF075F008EF2F7B
:10030000FFED33FD4007985006D5F0F222C398FD6B
:050310000FD5F0EA2208
:10031500C5F0F8A3E028F0C5F0F8E5821582700273
:060325001583E038F02210
:10032B00E88FF0A4CC8BF0A42CFCE98EF0A42CFC71
:10033B008AF0EDA42CFCEA8EF0A4CDA8F08BF0A4EF
:10034B002DCC3825F0FDE98FF0A42CCD35F0FCEB4E
:10035B008EF0A4FEA9F0EB8FF0A4CFC5F02ECD3913
:0F036B00FEE43CFCEAA42DCE35F0FDE43CFC2280
:10037A0075F008758200EF2FFFEE33FECD33CDCC3A
:10038A0033CCC58233C5829BED9AEC99E5829840BD
:10039A000CF582EE9BFEED9AFDEC99FC0FD5F0D69A
:1003AA00E4CEFBE4CDFAE4CCF9A88222B800C1B9C4
:1003BA000059BA002DEC8BF084CFCECDFCE5F0CB02
:1003CA00F97818EF2FFFEE33FEED33FDEC33FCEB3B
:1003DA0033FB10D703994004EB99FB0FD8E5E4F9F6
:1003EA00FA227818EF2FFFEE33FEED33FDEC33FCE3
:1003FA00C933C910D7059BE99A4007EC9BFCE99AD7
:10040A00F90FD8E0E4C9FAE4CCFB2275F010EF2F1B
:10041A00FFEE33FEED33FDCC33CCC833C810D7071B
:10042A009BEC9AE899400AED9BFDEC9AFCE899F856
:0E043A000FD5F0DAE4CDFBE4CCFAE4C8F922E9
:0E044800C3E49FFFE49EFEE49DFDE49CFC22C5
:10045600E8600FECC313FCED13FDEE13FEEF13FF84
:03046600D8F122A8
:0C046900ECF0A3EDF0A3EEF0A3EFF02206
:10047500A8828583F0D083D08212048C12048C125A
:10048500048C12048CE473E493A3C583C5F0C5837F
:10049500C8C582C8F0A3C583C5F0C583C8C582C8D1
:0104A5002234
:00000001FF
