:100C0A00636170747572655F6170706C6963617439
:100C1A00696F6E203A002C667265713A002C647511
:100C2A0074793A002C483A002C4C3A002C776964C3
:100C3A007468546F74616C3A002C74656D703A0074
:030C4A000D0A0090
:100D780041001B0041001C00C10144002800000084
:100D880000420025000042002C000042002E000016
:100D9800420023000044001F0000000042001D0024
:010DA800004A
:0F000E0090001EE004F0700690001DE004F02248
:090E500090001DE0FEA3E0FF226A
:090E590090001DEEF0A3EFF02261
:0B0C8C00900018EBF0A3EAF0A3E9F0E1
:100C9700E4FFFE900018E0FBA3E0FAA3E0F98F82DF
:100CA7008E831202CB601B900018E0A3E0A3E00F35
:100CB700EFAC0670010E14F5828C831202CBF59906
:020CC70080D1DA
:010CC9002208
:04070B00AB07AA0688
:10070F00900014E4F0A3740FF0900014E0FEA3E047
:10071F002404F58274003EF583E4F0EBAE02781FFB
:10072F00CEC313CE13D8F9FF900016EEF0A3EFF05F
:10073F004E600DEBF4FFEAF4FEEF2401FBE43EFA0A
:10074F00900015E024FFF0900014E034FFF07C00DF
:10075F007D0AAF03AE021202F8ED2430FFE0FCA3D6
:10076F00E02404F58274003CF583EFF07C007D0AF1
:10077F00AF03AE021202F8AA06AB07EB4A70C190A4
:10078F000016E07002A3E0601E900015E024FFF059
:10079F00900014E034FFF0E0FEA3E02404F582742F
:1007AF00003EF583742DF0900014E0FEA3E02404C6
:0A07BF00F974003EFA7B01120C8C65
:0107C900220D
:100932007BFF7A0C790A120C8C7BFF7A0C792012DD
:100942000C8C900025E0FEA3E0FF12070B7BFF7AE0
:100952000C7927120C8C900028E0A3E0A3E0FEA300
:10096200E0FF12070B7BFF7A0C792E120C8C9000A1
:100972002CE0FEA3E0FF12070B7BFF7A0C79321208
:100982000C8C90002EE0FEA3E0FF12070B7BFF7A97
:100992000C7936120C8C900023E0FEA3E0FF1207C4
:1009A2000B7BFF7A0C7943120C8C900025E0FEA39E
:1009B200E0FFFBAA06E4F9F87FD87EB87D05FC12B9
:0F09C20003D812070B7BFF7A0C794A120C8C2298
:10062E00E59230E017AFE5EFFEADE47C00E42DFF80
:10063E00EC3E90002CF0A3EFF05392FEE59230E1E9
:10064E0017AFE7EFFEADE67C00E42DFFEC3E900029
:10065E002EF0A3EFF05392FD90002EE0FEA3E0FFEC
:10066E0090002DE02FFF90002CE03E900023F0A391
:10067E00EFF0900023E0FCA3E0FDE4120211A804C9
:10068E00A905AA06AB077F007E1B7DB77C48120129
:10069E006F12024A900025EEF0A3EFF090002EE0CC
:1006AE00FCA3E0FDE4120211C004C005C006C007A1
:1006BE00900023E0FCA3E0FDE4120211A804A905BA
:1006CE00AA06AB07D007D006D005D00412016F7B67
:1006DE00007A40791C784612006612024A90002871
:1006EE0012048B90001FE0FCA3E0FDA3E0FEA3E04C
:0D06FE004402FFEEEDEC90001F12048B2271
:03006300020C4D3F
:100C4D00C0E0C0F0C083C082C0D075D000C000C06D
:100C5D0001C002C003C004C005C006C007C0911288
:100C6D00062ED091D007D006D005D004D003D002E7
:0F0C7D00D001D000D0D0D082D083D0F0D0E032E0
:03002B00020003CD
:07000300C091C2CFD0913281
:100AF900A2AF9200C2AF75C7AA75C755E4F591A216
:100B09000092AF53B3FB53B4FBD29253C8FE75C9DD
:100B19008953C8FE75C98A43C94053C9CF5393FC49
:100B290043930153F1F04392104394105393F353B9
:100B3900F10F439220439420A2AF9200C2AF75C730
:100B4900AA75C755F591A20092AF53F7FB43EF047D
:0D0B5900439B04C2CFD2CA439B80D2AF227F
:0E04C800900004EEF0A3EFF0A3ECF0A3EDF033
:1004D600A312049700000000A2AF9200C2AF75C736
:1004E600AA75C755E4F591A20092AF53B3DF43B4A2
:1004F60020A2AF9200C2AF75C7AA75C75575910104
:10050600A20092AF43C620A2AF9200C2AF75C7AA9F
:1005160075C755F591A20092AF53DF3F53DFF843FD
:10052600DF069000081204970005B8D8900008E08E
:10053600FCA3E0FDA3E0FEA3E0FFC006C007900019
:1005460004E0FEA3E0FFFBAA06E4F9F8D007D00614
:100556001203D890000812048B900008E0FCA3E078
:10056600FDA3E0FEA3E024FFFFEE34FFFEED34FF23
:10057600FDEC34FFFC90000812048B900008E0FCB0
:10058600A3E0FDA3E0FEA3E0FF78081204788FD174
:10059600900008E0FCA3E0FDA3E0FEA3E0FFE48FEB
:1005A600D9900008E0FCA3E0FDA3E0FEA3E024014F
:1005B600FBE43EFAE43DF9E43CF8900006E0FEA3D5
:1005C600E0FFE4FCFD12034DE47B107A27F9F812F4
:1005D60003D890000812048BA2AF9200C2AF75C771
:1005E600AA75C755759101A20092AF900008E0FC6C
:1005F600A3E0FDA3E0FEA3E0FF78081204788FC510
:10060600900008E0FCA3E0FDA3E0FEA3E0FFE48F7A
:10061600CDA2AF9200C2AF75C7AA75C755F591A214
:070626000092AFD2DED2DF2B
:01062D0022AA
:10002E00A2AF9200C2AF75C7AA75C755E4F591A2EB
:10003E000092AF53B37F53B47FA2AF9200C2AF759D
:10004E00C7AA75C755F591A20092AF53B1DF43B25F
:02005E0020225E
:100B660090001FE0FCA3E0FDA3E0FEA3E05420FFFD
:100B7600E4FEFDFCEF60047F0180027F00EF603C35
:100B860090001FE0FCA3E0FDA3E0FEA3E054DFFF1E
:100B9600EEEDEC90001F12048B90001FE0FCA3E02A
:100BA600FDA3E0FEA3E05402FFE4FEFDFCEF6004BB
:0D0BB6007F0180027F00EF600312093222F0
:100CCA0090001FE0FCA3E0FDA3E0FEA3E05410FFA8
:100CDA00E4FEFDFCEF60047F0180027F00EF6019F3
:100CEA0090001FE0FCA3E0FDA3E0FEA3E054EFFFA9
:0A0CFA00EEEDEC90001F12048B22B7
:100D040090001FE0FCA3E0FDA3E0FEA3E05408FF75
:100D1400E4FEFDFCEF60047F0180027F00EF6019B8
:100D240090001FE0FCA3E0FDA3E0FEA3E054F7FF66
:0A0D3400EEEDEC90001F12048B227C
:100D3E0090001FE0FCA3E0FDA3E0FEA3E05404FF3F
:100D4E00E4FEFDFCEF60047F0180027F00EF60197E
:100D5E0090001FE0FCA3E0FDA3E0FEA3E054FBFF28
:0A0D6E00EEEDEC90001F12048B2242
:0D0E4300120D3E120D04120CCA120B662295
:10088200900000E4F0A37405F0A3E4F0A37419F05F
:100892007B327A0012000E90001FE0FCA3E0FDA361
:1008A200E0FEA3E04404FFEEEDEC90001F12048B87
:1008B200120E50900000E0FCA3E0FD1202F8ED4C95
:1008C200701990001FE0FCA3E0FDA3E0FEA3E0444A
:1008D20008FFEEEDEC90001F12048B120E509000F8
:1008E20002E0FCA3E0FD1202F8ED4C701990001F2B
:1008F200E0FCA3E0FDA3E0FEA3E04410FFEEEDEC7C
:1009020090001F12048B120E50AC02AD031202F8BB
:10091200ED4C701BB28590001FE0FCA3E0FDA3E04C
:0F092200FEA3E04420FFEEEDEC90001F12048BCB
:0109310022A3
:03000B00020BC322
:100BC300C0E0C0F0C083C082C0D075D000C000C0F8
:100BD30002C003C004C005C006C007C09190001B3B
:100BE300E0F58CA3E0F58AC28D120882D091D0077C
:100BF300D006D005D004D003D002D000D0D0D0820C
:070C0300D083D0F0D0E032F5
:100DAA00E4900004F0A3F07D707CFE5389F043893F
:100DBA0001538EF7EC90001BF07470A3F090001BA7
:0D0DCA00E0F58CA3E0F58AD2A9D2AFD28C5F
:010DD70022F9
:03002300020DD8F3
:100DD800C0E0C083C082C09130980AD20190002739
:100DE800E599F0C298309905200202C299D091D0B5
:060DF80082D083D0E0323E
:1007CA009000041204970001C200A2AF9200C2AFC7
:1007DA0075C7AA75C755E4F591A20092AF53B1BF88
:1007EA0053B2BF75985043878053C4F8A2AF9200A2
:1007FA00C2AF75C7AA75C755F591A20092AF43C497
:10080A0020900004E0F8A3E0F9A3E0FAA3E0FB7F5C
:10081A00607EE37D167C001203D8C3E49FFFE49E4A
:10082A00FE74019DFDE49CFC78081204788FC69042
:10083A000004E0F8A3E0F9A3E0FAA3E0FB7F607EFE
:10084A00E37D167C001203D8C3E49FFFE49EFE7486
:10085A00019DFDE49CFCEFE48FC5A2AF9200C2AFFC
:10086A0075C7AA75C755F591A20092AF43C408D2BD
:07087A00ACD2AFD299D2020B
:010881002254
:100A6B009000047406F0E4F59175A638A2AF9200DD
:100A7B00C2AF75C7AA75C755439F01A20092AFF5C8
:100A8B00A775AF04A2AF9200C2AF75C7AA75C755C1
:100A9B0043A401A20092AF85AE0805A6A2AF9200B7
:100AAB00C2AF75C7AA75C75543A401A20092AF8503
:100ABB00AE09A2AF9200C2AF75C7AA75C755539FB7
:100ACB00FEA20092AF75C7AA75C75585088475C776
:100ADB00AA75C755850985A2AF9200C2AF75C7AA83
:0D0AEB0075C755539FFEA20092AF5387EFD1
:010AF80022DB
:100DFE00120A6BA2AF9200C2AF75C7AA75C755E4AF
:100E0E00F591A20092AFF5B1F5B2F5B3F5B4F5AC2C
:050E1E00F5ADD2AF228A
:100E2300120DFE1207CA12002E120DAA7D567C1D4A
:100E33007F0A7E001204C8120AF9120E4380FB22B5
:030000000209D121
:1009D100787FE4F6D8FD9000007FFF7E03E4F0A36A
:0A09E100DFFCDEFA758120020A2611
:10006600EC4D6011E8497017ED33EC3304600DE494
:10007600FCFFFEFD22E933E8330470F80202B612F3
:10008600028158046009E4CC2481500628500902F4
:1000960002C02840030202BDC0E0EB4A7044B980AA
:1000A60006D0E0FB0202ACEF4E701CBD8008EBFFF1
:1000B600EAFEE9FD80EBE98DF0A4FEE5F002014FD2
:1000C600E9CDF9EAFEEBFFEF89F0A4FCE5F0CE8975
:1000D600F0A42EFFE435F0CD89F0A42DFEE435F032
:1000E6008067EF4E7005BD80D780C3EF8BF0A4AC60
:1000F600F0EE8BF0A42CFCE435F0F8EF8AF0A42C9B
:10010600E5F038FCE433CB8DF0A42CFCE5F03BF8AD
:10011600EE8AF0A42CFCE5F038F8E433CF89F0A49D
:100126002CFCE5F038CF3400CE89F0A42FFFE5F0A3
:100136003EFEE433C98DF0A42EFEE5F039CD8AF0FB
:10014600A42FFFE5F03EFEE43DFD33D0E0FB500773
:100156000BBB000F0202C0EC2CFCEF33FFEE33FEAC
:06016600ED33FD020298DA
:10016C000202C0EC5D046005E8590470030202B69B
:10017C00120281580460F6EC4860F2EC7004FDFE4B
:10018C00FF22C860DB2481C85009C3986002500666
:10019C000202BD9850CAF582E9294B4A7005AB8220
:1001AC000202AC75F0007C1A7880C3EF9BEE9AEDDE
:1001BC0099400DC3EF9BFFEE9AFEED99FDE842F0DE
:1001CC00DC23ACF0D0E0FFD0E0FED0E0FDAB822031
:1001DC00E7101BEB60BAEC2CFCEF33FFEE33FEEDBB
:1001EC0033FD020298E803F830E705C0F075F00023
:1001FC00EF2FFFEE33FEED33FD40B830E7C280AA9F
:10020C0075F020800E75F010800575F0087D007E6D
:10021C00007F003392D530D50312046AEC334010C2
:10022C00EF33FFEE33FEED33FDEC33FCD5F0ED2276
:0E023C00E5F0247EA2D513CC92E7CDCEFF22B2
:10024A00EDD2E7CD33EC3392D524814006E4FFFEAC
:10025A00FDFC22FCE4CFCECDCC24E0501174FF800B
:10026A00EDC3CC13CCCD13CDCE13CECF13CF0470A8
:07027A00F030D5DE02046A3A
:10028100E9D2E7C933E833F892D5EDD2E7CD33ECC3
:0702910033FC5002B2D5223C
:10029800EC30E7100FBF000C0EBE00080DBD0004C7
:1002A8000BEB6014A2D5EB13FCED92E7FD2274FF73
:1002B800FCFDFEFF22E480F8A2D574FF13FC7D80CC
:0302C800E480EFE0
:1009EB00020E23E493A3F8E493A34003F68001F2F1
:1009FB0008DFF48029E493A3F85407240CC8C3330D
:100A0B00C4540F4420C8834004F456800146F6DFDB
:100A1B00E4800B0102040810204080900D78E47EE6
:100A2B00019360BCA3FF543F30E509541FFEE493D0
:100A3B00A360010ECF54C025E060A840B8E493A397
:100A4B00FAE493A3F8E493A3C8C582C8CAC583CAC2
:100A5B00F0A3C8C582C8CAC583CADFE9DEE780BE7A
:010DA9000049
:1002CB00BB010CE58229F582E5833AF583E02250E8
:1002DB0006E92582F8E622BBFE06E92582F8E22232
:0D02EB00E58229F582E5833AF583E493224C
:1002F800BC000BBE0029EF8DF084FFADF022E4CCEA
:10030800F875F008EF2FFFEE33FEEC33FCEE9DECB2
:10031800984005FCEE9DFE0FD5F0E9E4CEFD22EDF8
:10032800F8F5F0EE8420D21CFEADF075F008EF2F42
:10033800FFED33FD4007985006D5F0F222C398FD33
:050348000FD5F0EA22D0
:10034D00E88FF0A4CC8BF0A42CFCE98EF0A42CFC4F
:10035D008AF0EDA42CFCEA8EF0A4CDA8F08BF0A4CD
:10036D002DCC3825F0FDE98FF0A42CCD35F0FCEB2C
:10037D008EF0A4FEA9F0EB8FF0A4CFC5F02ECD39F1
:0F038D00FEE43CFCEAA42DCE35F0FDE43CFC225E
:10039C0075F008758200EF2FFFEE33FECD33CDCC18
:1003AC0033CCC58233C5829BED9AEC99E58298409B
:1003BC000CF582EE9BFEED9AFDEC99FC0FD5F0D678
:1003CC00E4CEFBE4CDFAE4CCF9A88222B800C1B9A2
:1003DC000059BA002DEC8BF084CFCECDFCE5F0CBE0
:1003EC00F97818EF2FFFEE33FEED33FDEC33FCEB19
:1003FC0033FB10D703994004EB99FB0FD8E5E4F9D4
:10040C00FA227818EF2FFFEE33FEED33FDEC33FCC0
:10041C00C933C910D7059BE99A4007EC9BFCE99AB4
:10042C00F90FD8E0E4C9FAE4CCFB2275F010EF2FF9
:10043C00FFEE33FEED33FDCC33CCC833C810D707F9
:10044C009BEC9AE899400AED9BFDEC9AFCE899F834
:0E045C000FD5F0DAE4CDFBE4CCFAE4C8F922C7
:0E046A00C3E49FFFE49EFEE49DFDE49CFC22A3
:10047800E8600FECC313FCED13FDEE13FEEF13FF62
:03048800D8F12286
:0C048B00ECF0A3EDF0A3EEF0A3EFF022E4
:10049700A8828583F0D083D0821204AE1204AE12F4
:1004A70004AE1204AEE473E493A3C583C5F0C58319
:1004B700C8C582C8F0A3C583C5F0C583C8C582C8AF
:0104C7002212
:00000001FF
